{
  "contractName": "MultiSigDocumentWithStorage",
  "abi": [
    {
      "constant": true,
      "inputs": [],
      "name": "issuer",
      "outputs": [
        {
          "name": "",
          "type": "address"
        }
      ],
      "payable": false,
      "stateMutability": "view",
      "type": "function"
    },
    {
      "constant": true,
      "inputs": [],
      "name": "numOfRequiredSignature",
      "outputs": [
        {
          "name": "",
          "type": "uint256"
        }
      ],
      "payable": false,
      "stateMutability": "view",
      "type": "function"
    },
    {
      "constant": false,
      "inputs": [],
      "name": "revokeDocument",
      "outputs": [],
      "payable": false,
      "stateMutability": "nonpayable",
      "type": "function"
    },
    {
      "constant": true,
      "inputs": [],
      "name": "verifier",
      "outputs": [
        {
          "name": "",
          "type": "address"
        }
      ],
      "payable": false,
      "stateMutability": "view",
      "type": "function"
    },
    {
      "constant": false,
      "inputs": [
        {
          "name": "confirmedDeleted",
          "type": "bool"
        },
        {
          "name": "sig",
          "type": "bytes"
        }
      ],
      "name": "submitDeleteConfirmation",
      "outputs": [],
      "payable": false,
      "stateMutability": "nonpayable",
      "type": "function"
    },
    {
      "constant": true,
      "inputs": [
        {
          "name": "addr",
          "type": "address"
        }
      ],
      "name": "isVerifier",
      "outputs": [
        {
          "name": "",
          "type": "bool"
        }
      ],
      "payable": false,
      "stateMutability": "view",
      "type": "function"
    },
    {
      "constant": true,
      "inputs": [],
      "name": "validDays",
      "outputs": [
        {
          "name": "",
          "type": "uint256"
        }
      ],
      "payable": false,
      "stateMutability": "view",
      "type": "function"
    },
    {
      "constant": true,
      "inputs": [],
      "name": "checkDeleteConfirmations",
      "outputs": [
        {
          "name": "",
          "type": "bool"
        }
      ],
      "payable": false,
      "stateMutability": "view",
      "type": "function"
    },
    {
      "constant": true,
      "inputs": [],
      "name": "finalizedSigConfirmations",
      "outputs": [
        {
          "name": "",
          "type": "uint8"
        }
      ],
      "payable": false,
      "stateMutability": "view",
      "type": "function"
    },
    {
      "constant": true,
      "inputs": [
        {
          "name": "",
          "type": "address"
        }
      ],
      "name": "signerProperties",
      "outputs": [
        {
          "name": "IsSigner",
          "type": "bool"
        },
        {
          "name": "IsSigned",
          "type": "bool"
        },
        {
          "name": "DeleteConfirmed",
          "type": "bool"
        }
      ],
      "payable": false,
      "stateMutability": "view",
      "type": "function"
    },
    {
      "constant": true,
      "inputs": [],
      "name": "expiration",
      "outputs": [
        {
          "name": "",
          "type": "uint256"
        }
      ],
      "payable": false,
      "stateMutability": "view",
      "type": "function"
    },
    {
      "constant": true,
      "inputs": [
        {
          "name": "",
          "type": "bytes32"
        }
      ],
      "name": "entryStorage",
      "outputs": [
        {
          "name": "",
          "type": "string"
        }
      ],
      "payable": false,
      "stateMutability": "view",
      "type": "function"
    },
    {
      "constant": false,
      "inputs": [],
      "name": "verifyDocument",
      "outputs": [],
      "payable": false,
      "stateMutability": "nonpayable",
      "type": "function"
    },
    {
      "constant": true,
      "inputs": [],
      "name": "MAX_SIGNER_COUNT",
      "outputs": [
        {
          "name": "",
          "type": "uint256"
        }
      ],
      "payable": false,
      "stateMutability": "view",
      "type": "function"
    },
    {
      "constant": true,
      "inputs": [],
      "name": "isVerified",
      "outputs": [
        {
          "name": "",
          "type": "bool"
        }
      ],
      "payable": false,
      "stateMutability": "view",
      "type": "function"
    },
    {
      "constant": true,
      "inputs": [
        {
          "name": "addr",
          "type": "address"
        }
      ],
      "name": "isIssuer",
      "outputs": [
        {
          "name": "",
          "type": "bool"
        }
      ],
      "payable": false,
      "stateMutability": "view",
      "type": "function"
    },
    {
      "constant": true,
      "inputs": [],
      "name": "isEnoughSignature",
      "outputs": [
        {
          "name": "",
          "type": "bool"
        }
      ],
      "payable": false,
      "stateMutability": "view",
      "type": "function"
    },
    {
      "constant": true,
      "inputs": [],
      "name": "allowModificationDeadline",
      "outputs": [
        {
          "name": "",
          "type": "uint256"
        }
      ],
      "payable": false,
      "stateMutability": "view",
      "type": "function"
    },
    {
      "constant": true,
      "inputs": [],
      "name": "autoActivation",
      "outputs": [
        {
          "name": "",
          "type": "bool"
        }
      ],
      "payable": false,
      "stateMutability": "view",
      "type": "function"
    },
    {
      "constant": true,
      "inputs": [],
      "name": "createdTime",
      "outputs": [
        {
          "name": "",
          "type": "uint256"
        }
      ],
      "payable": false,
      "stateMutability": "view",
      "type": "function"
    },
    {
      "constant": true,
      "inputs": [],
      "name": "verified",
      "outputs": [
        {
          "name": "",
          "type": "bool"
        }
      ],
      "payable": false,
      "stateMutability": "view",
      "type": "function"
    },
    {
      "constant": true,
      "inputs": [
        {
          "name": "",
          "type": "uint256"
        }
      ],
      "name": "entryKeys",
      "outputs": [
        {
          "name": "",
          "type": "string"
        }
      ],
      "payable": false,
      "stateMutability": "view",
      "type": "function"
    },
    {
      "constant": false,
      "inputs": [
        {
          "name": "sig",
          "type": "bytes"
        }
      ],
      "name": "signDocument",
      "outputs": [],
      "payable": false,
      "stateMutability": "nonpayable",
      "type": "function"
    },
    {
      "constant": true,
      "inputs": [],
      "name": "writable",
      "outputs": [
        {
          "name": "",
          "type": "bool"
        }
      ],
      "payable": false,
      "stateMutability": "view",
      "type": "function"
    },
    {
      "constant": true,
      "inputs": [],
      "name": "deleteConfirmations",
      "outputs": [
        {
          "name": "",
          "type": "uint8"
        }
      ],
      "payable": false,
      "stateMutability": "view",
      "type": "function"
    },
    {
      "constant": false,
      "inputs": [
        {
          "name": "newRequiredNumber",
          "type": "uint256"
        }
      ],
      "name": "changeNumberOfRquiredSignatures",
      "outputs": [],
      "payable": false,
      "stateMutability": "nonpayable",
      "type": "function"
    },
    {
      "inputs": [
        {
          "name": "signers",
          "type": "address[]"
        },
        {
          "name": "verifier",
          "type": "address"
        },
        {
          "name": "required",
          "type": "uint8"
        },
        {
          "name": "effectiveDurationInDay",
          "type": "uint256"
        },
        {
          "name": "offset",
          "type": "uint256"
        },
        {
          "name": "buffer",
          "type": "bytes"
        }
      ],
      "payable": false,
      "stateMutability": "nonpayable",
      "type": "constructor"
    },
    {
      "payable": false,
      "stateMutability": "nonpayable",
      "type": "fallback"
    },
    {
      "anonymous": false,
      "inputs": [
        {
          "indexed": false,
          "name": "l1",
          "type": "uint256"
        },
        {
          "indexed": false,
          "name": "s1",
          "type": "string"
        },
        {
          "indexed": false,
          "name": "s2",
          "type": "string"
        }
      ],
      "name": "LogString",
      "type": "event"
    },
    {
      "anonymous": false,
      "inputs": [
        {
          "indexed": true,
          "name": "document",
          "type": "address"
        },
        {
          "indexed": false,
          "name": "entryKey",
          "type": "string"
        }
      ],
      "name": "EntrySet",
      "type": "event"
    },
    {
      "anonymous": false,
      "inputs": [
        {
          "indexed": true,
          "name": "document",
          "type": "address"
        },
        {
          "indexed": false,
          "name": "entryKey",
          "type": "string"
        }
      ],
      "name": "EntryDeleted",
      "type": "event"
    },
    {
      "anonymous": false,
      "inputs": [
        {
          "indexed": true,
          "name": "document",
          "type": "address"
        },
        {
          "indexed": false,
          "name": "entryKey",
          "type": "string"
        }
      ],
      "name": "EntryUpdateRequest",
      "type": "event"
    },
    {
      "anonymous": false,
      "inputs": [
        {
          "indexed": true,
          "name": "verifier",
          "type": "address"
        },
        {
          "indexed": true,
          "name": "doc",
          "type": "address"
        }
      ],
      "name": "Verification",
      "type": "event"
    },
    {
      "anonymous": false,
      "inputs": [
        {
          "indexed": true,
          "name": "verifier",
          "type": "address"
        },
        {
          "indexed": true,
          "name": "doc",
          "type": "address"
        }
      ],
      "name": "Revocation",
      "type": "event"
    },
    {
      "anonymous": false,
      "inputs": [
        {
          "indexed": false,
          "name": "submitter",
          "type": "address"
        }
      ],
      "name": "LogInvalidSignatureSubmission",
      "type": "event"
    },
    {
      "anonymous": false,
      "inputs": [
        {
          "indexed": false,
          "name": "oldNum",
          "type": "uint256"
        },
        {
          "indexed": true,
          "name": "newNum",
          "type": "uint256"
        }
      ],
      "name": "LogNumOfRequiredSignatureChanged",
      "type": "event"
    },
    {
      "anonymous": false,
      "inputs": [
        {
          "indexed": true,
          "name": "document",
          "type": "address"
        },
        {
          "indexed": true,
          "name": "verifier",
          "type": "address"
        }
      ],
      "name": "DocumentSigned",
      "type": "event"
    },
    {
      "anonymous": false,
      "inputs": [
        {
          "indexed": true,
          "name": "document",
          "type": "address"
        },
        {
          "indexed": true,
          "name": "verifier",
          "type": "address"
        }
      ],
      "name": "DeleteDocumentConfirmation",
      "type": "event"
    },
    {
      "constant": true,
      "inputs": [],
      "name": "getAllKeys",
      "outputs": [
        {
          "name": "out1",
          "type": "string"
        }
      ],
      "payable": false,
      "stateMutability": "view",
      "type": "function"
    },
    {
      "constant": true,
      "inputs": [],
      "name": "getAllValues",
      "outputs": [
        {
          "name": "out1",
          "type": "string"
        }
      ],
      "payable": false,
      "stateMutability": "view",
      "type": "function"
    },
    {
      "constant": true,
      "inputs": [],
      "name": "getProofHash",
      "outputs": [
        {
          "name": "",
          "type": "bytes32"
        }
      ],
      "payable": false,
      "stateMutability": "view",
      "type": "function"
    },
    {
      "constant": false,
      "inputs": [
        {
          "name": "key",
          "type": "string"
        },
        {
          "name": "value",
          "type": "string"
        }
      ],
      "name": "addEntry",
      "outputs": [],
      "payable": false,
      "stateMutability": "nonpayable",
      "type": "function"
    },
    {
      "constant": false,
      "inputs": [
        {
          "name": "key",
          "type": "string"
        },
        {
          "name": "value",
          "type": "string"
        }
      ],
      "name": "updateEntry",
      "outputs": [],
      "payable": false,
      "stateMutability": "nonpayable",
      "type": "function"
    },
    {
      "constant": false,
      "inputs": [
        {
          "name": "key",
          "type": "string"
        }
      ],
      "name": "deleteEntry",
      "outputs": [],
      "payable": false,
      "stateMutability": "nonpayable",
      "type": "function"
    },
    {
      "constant": false,
      "inputs": [
        {
          "name": "_writable",
          "type": "bool"
        },
        {
          "name": "key",
          "type": "string"
        }
      ],
      "name": "changeWritePermission",
      "outputs": [],
      "payable": false,
      "stateMutability": "nonpayable",
      "type": "function"
    },
    {
      "constant": true,
      "inputs": [
        {
          "name": "key",
          "type": "string"
        }
      ],
      "name": "getEntry",
      "outputs": [
        {
          "name": "",
          "type": "string"
        }
      ],
      "payable": false,
      "stateMutability": "view",
      "type": "function"
    },
    {
      "constant": true,
      "inputs": [
        {
          "name": "s1",
          "type": "string"
        }
      ],
      "name": "getKKHash",
      "outputs": [
        {
          "name": "",
          "type": "bytes32"
        }
      ],
      "payable": false,
      "stateMutability": "view",
      "type": "function"
    },
    {
      "constant": false,
      "inputs": [],
      "name": "deleteDocument",
      "outputs": [],
      "payable": false,
      "stateMutability": "nonpayable",
      "type": "function"
    }
  ],
  "bytecode": "0x608060405261016d6001557fffffffffffffffffffffffffffffffffffffffffffffffffffffffffffffffff6002556000600360006101000a81548160ff0219169083151502179055506000600360016101000a81548160ff02191690831515021790555060006004556000600760146101000a81548160ff021916908360ff1602179055506000600760156101000a81548160ff021916908360ff160217905550600a604051908082528060200260200182016040528015620000d25781602001602082028038833980820191505090505b5060099080519060200190620000ea92919062000c7b565b506000600c60006101000a81548160ff0219169083151502179055503480156200011357600080fd5b5060405162003e6d38038062003e6d83398101806040528101908080518201929190602001805190602001909291908051906020019092919080519060200190929190805190602001909291908051820192919050505085858560ff1685601e60008551848484600084101580156200018d5750600a8411155b15156200019957600080fd5b60008310158015620001ab5750600a83105b1515620001b757600080fd5b600082118015620001c757508181105b1515620001d357600080fd5b600094505b89518510156200038457600073ffffffffffffffffffffffffffffffffffffffff168a868151811015156200020957fe5b9060200190602002015173ffffffffffffffffffffffffffffffffffffffff16141580156200027c57503373ffffffffffffffffffffffffffffffffffffffff168a868151811015156200025957fe5b9060200190602002015173ffffffffffffffffffffffffffffffffffffffff1614155b15156200028557fe5b6001600860008c888151811015156200029a57fe5b9060200190602002015173ffffffffffffffffffffffffffffffffffffffff1673ffffffffffffffffffffffffffffffffffffffff16815260200190815260200160002060000160006101000a81548160ff02191690831515021790555060098a868151811015156200030957fe5b9060200190602002015190806001815401808255809150509060018203906000526020600020016000909192909190916101000a81548173ffffffffffffffffffffffffffffffffffffffff021916908373ffffffffffffffffffffffffffffffffffffffff160217905550508480600101955050620001d8565b33600760006101000a81548173ffffffffffffffffffffffffffffffffffffffff021916908373ffffffffffffffffffffffffffffffffffffffff160217905550600160086000600760009054906101000a900473ffffffffffffffffffffffffffffffffffffffff1673ffffffffffffffffffffffffffffffffffffffff1673ffffffffffffffffffffffffffffffffffffffff16815260200190815260200160002060000160006101000a81548160ff0219169083151502179055506009600760009054906101000a900473ffffffffffffffffffffffffffffffffffffffff1690806001815401808255809150509060018203906000526020600020016000909192909190916101000a81548173ffffffffffffffffffffffffffffffffffffffff021916908373ffffffffffffffffffffffffffffffffffffffff1602179055505088600660006101000a81548173ffffffffffffffffffffffffffffffffffffffff021916908373ffffffffffffffffffffffffffffffffffffffff160217905550426000819055506000871462000522578662000525565b60005b6001819055506000871462000546576201518060015402600054016200054a565b6002545b6002819055506001880160058190555062015180860260005401600481905550505050505050505050506200058f82826200059b640100000000026401000000009004565b50505050505062000e19565b600060608060605b60008611156200090d57858501519350836040519080825280601f01601f191660200182016040528015620005e75781602001602082028038833980820191505090505b5092506200060686868562000915640100000000026401000000009004565b620006208362000971640100000000026401000000009004565b86039550858501519350836040519080825280601f01601f1916602001820160405280156200065e5781602001602082028038833980820191505090505b5091506200067d86868462000915640100000000026401000000009004565b620006978262000971640100000000026401000000009004565b860395506200072e62000714620006d86040805190810160405280600181526020016000815250620009b96401000000000262002886176401000000009004565b620006f785620009b96401000000000262002886176401000000009004565b620009e96401000000000262002e18179091906401000000009004565b62000a166401000000000262002e32176401000000009004565b905080600a6000856040516020018082805190602001908083835b60208310151562000770578051825260208201915060208101905060208303925062000749565b6001836020036101000a0380198251168184511680821785525050505050509050019150506040516020818303038152906040526040518082805190602001908083835b602083101515620007db5780518252602082019150602081019050602083039250620007b4565b6001836020036101000a03801982511681845116808217855250505050505090500191505060405180910390206000191660001916815260200190815260200160002090805190602001906200083392919062000d0a565b50600b620008c9620008af620008736040805190810160405280600181526020016000815250620009b96401000000000262002886176401000000009004565b6200089287620009b96401000000000262002886176401000000009004565b620009e96401000000000262002e18179091906401000000009004565b62000a166401000000000262002e32176401000000009004565b90806001815401808255809150509060018203906000526020600020016000909192909190915090805190602001906200090592919062000d0a565b5050620005a3565b505050505050565b6000602090506000848401519150600160208304019050600060208306111562000940576001810190505b60005b818110156200096957858501516020820285015260208603955060018101905062000943565b505050505050565b6000602082518115156200098157fe5b0490506000602083518115156200099457fe5b06141515620009a65780806001019150505b8080600101915050602081029050919050565b620009c362000d91565b600060208301905060408051908101604052808451815260200182815250915050919050565b620009f362000d91565b62000a0f83838362000a8a640100000000026401000000009004565b5092915050565b606080600083600001516040519080825280601f01601f19166020018201604052801562000a535781602001602082028038833980820191505090505b50915060208201905062000a80818560200151866000015162000b3d640100000000026401000000009004565b8192505050919050565b62000a9462000d91565b600062000ac3856000015186602001518660000151876020015162000b8a640100000000026401000000009004565b9050846020015183602001818152505084602001518103836000018181525050846000015185602001510181141562000b0757600085600001818152505062000b32565b8360000151836000015101856000018181510391508181525050836000015181018560200181815250505b829150509392505050565b60005b60208210151562000b67578251845260208401935060208301925060208203915062000b40565b6001826020036101000a0390508019835116818551168181178652505050505050565b60008060008060008060008060008b97508c8b11151562000c655760208b11151562000c1b5760018b60200360080260020a03196001029550858a511694508a8d8d010393508588511692505b8460001916836000191614151562000c1257838810151562000bfe578c8c01985062000c6b565b878060010198505085885116925062000bd7565b87985062000c6b565b8a8a209150600096505b8a8d038711151562000c64578a8820905080600019168260001916141562000c505787985062000c6b565b600188019750868060010197505062000c25565b5b8c8c0198505b5050505050505050949350505050565b82805482825590600052602060002090810192821562000cf7579160200282015b8281111562000cf65782518260006101000a81548173ffffffffffffffffffffffffffffffffffffffff021916908373ffffffffffffffffffffffffffffffffffffffff1602179055509160200191906001019062000c9c565b5b50905062000d06919062000dab565b5090565b828054600181600116156101000203166002900490600052602060002090601f016020900481019282601f1062000d4d57805160ff191683800117855562000d7e565b8280016001018555821562000d7e579182015b8281111562000d7d57825182559160200191906001019062000d60565b5b50905062000d8d919062000df1565b5090565b604080519081016040528060008152602001600081525090565b62000dee91905b8082111562000dea57600081816101000a81549073ffffffffffffffffffffffffffffffffffffffff02191690555060010162000db2565b5090565b90565b62000e1691905b8082111562000e1257600081600090555060010162000df8565b5090565b90565b6130448062000e296000396000f3006080604052600436106101c2576000357c0100000000000000000000000000000000000000000000000000000000900463ffffffff16806317674544146101d15780631d1438481461023a57806322a151d41461029157806326f4490b146102bc5780632b7ac3f3146102d35780633034d20e1461032a578063331052181461039f5780633318d07c146103fa578063350f348f14610425578063351e8cc91461045457806340150816146104855780634665096d146104f65780634f9c1160146105215780634fb4e8331461059657806355e03373146106405780635ce308a7146106735780635f1a17a91461072257806362dfa1be1461073957806380007e8314610764578063877b9a67146107935780638cd0670b146107ee578063930bced11461081d578063981f549914610848578063a6de5832146108d8578063b2f4bdb014610907578063b319c9e414610932578063bbb82d8914610a14578063bc87eed314610a43578063c1bbc7db14610ad3578063c2797a3114610b58578063c2cf90bf14610bfe578063c63c5bd114610c15578063c88bcd2214610c7e578063d260679314610cad578063daabf2bd14610d5c578063f6e570e614610d8d575b3480156101ce57600080fd5b50005b3480156101dd57600080fd5b50610238600480360381019080803590602001908201803590602001908080601f0160208091040260200160405190810160405280939291908181526020018383808284378201915050505050509192919290505050610dba565b005b34801561024657600080fd5b5061024f610f2b565b604051808273ffffffffffffffffffffffffffffffffffffffff1673ffffffffffffffffffffffffffffffffffffffff16815260200191505060405180910390f35b34801561029d57600080fd5b506102a6610f51565b6040518082815260200191505060405180910390f35b3480156102c857600080fd5b506102d1610f57565b005b3480156102df57600080fd5b506102e861105c565b604051808273ffffffffffffffffffffffffffffffffffffffff1673ffffffffffffffffffffffffffffffffffffffff16815260200191505060405180910390f35b34801561033657600080fd5b5061039d600480360381019080803515159060200190929190803590602001908201803590602001908080601f0160208091040260200160405190810160405280939291908181526020018383808284378201915050505050509192919290505050611082565b005b3480156103ab57600080fd5b506103e0600480360381019080803573ffffffffffffffffffffffffffffffffffffffff16906020019092919050505061131e565b604051808215151515815260200191505060405180910390f35b34801561040657600080fd5b5061040f611378565b6040518082815260200191505060405180910390f35b34801561043157600080fd5b5061043a61137e565b604051808215151515815260200191505060405180910390f35b34801561046057600080fd5b50610469611469565b604051808260ff1660ff16815260200191505060405180910390f35b34801561049157600080fd5b506104c6600480360381019080803573ffffffffffffffffffffffffffffffffffffffff16906020019092919050505061147c565b60405180841515151581526020018315151515815260200182151515158152602001935050505060405180910390f35b34801561050257600080fd5b5061050b6114cd565b6040518082815260200191505060405180910390f35b34801561052d57600080fd5b50610594600480360381019080803515159060200190929190803590602001908201803590602001908080601f01602080910402602001604051908101604052809392919081815260200183838082843782019150505050505091929192905050506114d3565b005b3480156105a257600080fd5b506105c56004803603810190808035600019169060200190929190505050611600565b6040518080602001828103825283818151815260200191508051906020019080838360005b838110156106055780820151818401526020810190506105ea565b50505050905090810190601f1680156106325780820380516001836020036101000a031916815260200191505b509250505060405180910390f35b34801561064c57600080fd5b506106556116b0565b60405180826000191660001916815260200191505060405180910390f35b34801561067f57600080fd5b50610720600480360381019080803590602001908201803590602001908080601f0160208091040260200160405190810160405280939291908181526020018383808284378201915050505050509192919290803590602001908201803590602001908080601f016020809104026020016040519081016040528093929190818152602001838380828437820191505050505050919291929050505061178d565b005b34801561072e57600080fd5b50610737611994565b005b34801561074557600080fd5b5061074e611a90565b6040518082815260200191505060405180910390f35b34801561077057600080fd5b50610779611a95565b604051808215151515815260200191505060405180910390f35b34801561079f57600080fd5b506107d4600480360381019080803573ffffffffffffffffffffffffffffffffffffffff169060200190929190505050611aac565b604051808215151515815260200191505060405180910390f35b3480156107fa57600080fd5b50610803611b06565b604051808215151515815260200191505060405180910390f35b34801561082957600080fd5b50610832611bb6565b6040518082815260200191505060405180910390f35b34801561085457600080fd5b5061085d611bbc565b6040518080602001828103825283818151815260200191508051906020019080838360005b8381101561089d578082015181840152602081019050610882565b50505050905090810190601f1680156108ca5780820380516001836020036101000a031916815260200191505b509250505060405180910390f35b3480156108e457600080fd5b506108ed611d8e565b604051808215151515815260200191505060405180910390f35b34801561091357600080fd5b5061091c611da1565b6040518082815260200191505060405180910390f35b34801561093e57600080fd5b50610999600480360381019080803590602001908201803590602001908080601f0160208091040260200160405190810160405280939291908181526020018383808284378201915050505050509192919290505050611da7565b6040518080602001828103825283818151815260200191508051906020019080838360005b838110156109d95780820151818401526020810190506109be565b50505050905090810190601f168015610a065780820380516001836020036101000a031916815260200191505b509250505060405180910390f35b348015610a2057600080fd5b50610a29611e74565b604051808215151515815260200191505060405180910390f35b348015610a4f57600080fd5b50610a58611e87565b6040518080602001828103825283818151815260200191508051906020019080838360005b83811015610a98578082015181840152602081019050610a7d565b50505050905090810190601f168015610ac55780820380516001836020036101000a031916815260200191505b509250505060405180910390f35b348015610adf57600080fd5b50610b3a600480360381019080803590602001908201803590602001908080601f0160208091040260200160405190810160405280939291908181526020018383808284378201915050505050509192919290505050611fe6565b60405180826000191660001916815260200191505060405180910390f35b348015610b6457600080fd5b50610b83600480360381019080803590602001909291905050506120ee565b6040518080602001828103825283818151815260200191508051906020019080838360005b83811015610bc3578082015181840152602081019050610ba8565b50505050905090810190601f168015610bf05780820380516001836020036101000a031916815260200191505b509250505060405180910390f35b348015610c0a57600080fd5b50610c136121a9565b005b348015610c2157600080fd5b50610c7c600480360381019080803590602001908201803590602001908080601f0160208091040260200160405190810160405280939291908181526020018383808284378201915050505050509192919290505050612263565b005b348015610c8a57600080fd5b50610c936125af565b604051808215151515815260200191505060405180910390f35b348015610cb957600080fd5b50610d5a600480360381019080803590602001908201803590602001908080601f0160208091040260200160405190810160405280939291908181526020018383808284378201915050505050509192919290803590602001908201803590602001908080601f01602080910402602001604051908101604052809392919081815260200183838082843782019150505050505091929192905050506125c2565b005b348015610d6857600080fd5b50610d7161278b565b604051808260ff1660ff16815260200191505060405180910390f35b348015610d9957600080fd5b50610db86004803603810190808035906020019092919050505061279e565b005b60045442101515610dca57600080fd5b600c60009054906101000a900460ff161515610de257fe5b3373ffffffffffffffffffffffffffffffffffffffff16600760009054906101000a900473ffffffffffffffffffffffffffffffffffffffff1673ffffffffffffffffffffffffffffffffffffffff16141515610e3e57600080fd5b600a6000610e53610e4e84612886565b6128b4565b600019166000191681526020019081526020016000206000610e759190612d11565b3073ffffffffffffffffffffffffffffffffffffffff167f9db365c920fe9181ff90a5267a74a6c0c2954b878ae78f6ab57bed0c2bd5c239826040518080602001828103825283818151815260200191508051906020019080838360005b83811015610eee578082015181840152602081019050610ed3565b50505050905090810190601f168015610f1b5780820380516001836020036101000a031916815260200191505b509250505060405180910390a250565b600760009054906101000a900473ffffffffffffffffffffffffffffffffffffffff1681565b60055481565b60025442111515610f6757600080fd5b3373ffffffffffffffffffffffffffffffffffffffff16600660009054906101000a900473ffffffffffffffffffffffffffffffffffffffff1673ffffffffffffffffffffffffffffffffffffffff16141515610fc357600080fd5b6000600360016101000a81548160ff0219169083151502179055503073ffffffffffffffffffffffffffffffffffffffff16600660009054906101000a900473ffffffffffffffffffffffffffffffffffffffff1673ffffffffffffffffffffffffffffffffffffffff167f6461d55e3edc9ce5c9c80d7bfb1a6fbcb71312efa790a6687225eadf3bdaffaf60405160405180910390a3565b600660009054906101000a900473ffffffffffffffffffffffffffffffffffffffff1681565b60006111918261117f3086604051602001808373ffffffffffffffffffffffffffffffffffffffff1673ffffffffffffffffffffffffffffffffffffffff166c0100000000000000000000000002815260140182151515157f0100000000000000000000000000000000000000000000000000000000000000028152600101925050506040516020818303038152906040526040518082805190602001908083835b6020831015156111495780518252602082019150602081019050602083039250611124565b6001836020036101000a0380198251168184511680821785525050505050509050019150506040518091039020600019166128c5565b6000191661298090919063ffffffff16565b9050600860008273ffffffffffffffffffffffffffffffffffffffff1673ffffffffffffffffffffffffffffffffffffffff16815260200190815260200160002060000160009054906101000a900460ff1615156111eb57fe5b600860008273ffffffffffffffffffffffffffffffffffffffff1673ffffffffffffffffffffffffffffffffffffffff16815260200190815260200160002060000160019054906101000a900460ff16151561124357fe5b82600860008373ffffffffffffffffffffffffffffffffffffffff1673ffffffffffffffffffffffffffffffffffffffff16815260200190815260200160002060000160026101000a81548160ff021916908315150217905550600660009054906101000a900473ffffffffffffffffffffffffffffffffffffffff1673ffffffffffffffffffffffffffffffffffffffff163073ffffffffffffffffffffffffffffffffffffffff167fb9f6e448b49729be08881707bf32b32df91dc5e5fd36f5bfb05816b413591cdb60405160405180910390a3505050565b60008173ffffffffffffffffffffffffffffffffffffffff16600660009054906101000a900473ffffffffffffffffffffffffffffffffffffffff1673ffffffffffffffffffffffffffffffffffffffff16149050919050565b60015481565b6000806000809150600090505b6009805490508160ff16101561144957600115156008600060098460ff168154811015156113b557fe5b9060005260206000200160009054906101000a900473ffffffffffffffffffffffffffffffffffffffff1673ffffffffffffffffffffffffffffffffffffffff1673ffffffffffffffffffffffffffffffffffffffff16815260200190815260200160002060000160029054906101000a900460ff161515141561143c5781806001019250505b808060010191505061138b565b6005548260ff16101561145f5760009250611464565b600192505b505090565b600760149054906101000a900460ff1681565b60086020528060005260406000206000915090508060000160009054906101000a900460ff16908060000160019054906101000a900460ff16908060000160029054906101000a900460ff16905083565b60025481565b3373ffffffffffffffffffffffffffffffffffffffff16600660009054906101000a900473ffffffffffffffffffffffffffffffffffffffff1673ffffffffffffffffffffffffffffffffffffffff1614151561152f57600080fd5b81600c60006101000a81548160ff0219169083151502179055503073ffffffffffffffffffffffffffffffffffffffff167fcd418e9e4619655d848c242ba583f7bcd1f74bb3a658a3bbaf6ac569fc4b9347826040518080602001828103825283818151815260200191508051906020019080838360005b838110156115c25780820151818401526020810190506115a7565b50505050905090810190601f1680156115ef5780820380516001836020036101000a031916815260200191505b509250505060405180910390a25050565b600a6020528060005260406000206000915090508054600181600116156101000203166002900480601f0160208091040260200160405190810160405280929190818152602001828054600181600116156101000203166002900480156116a85780601f1061167d576101008083540402835291602001916116a8565b820191906000526020600020905b81548152906001019060200180831161168b57829003601f168201915b505050505081565b60006116ba611bbc565b6040516020018082805190602001908083835b6020831015156116f257805182526020820191506020810190506020830392506116cd565b6001836020036101000a0380198251168184511680821785525050505050509050019150506040516020818303038152906040526040518082805190602001908083835b60208310151561175b5780518252602082019150602081019050602083039250611736565b6001836020036101000a0380198251168184511680821785525050505050509050019150506040518091039020905090565b600c60009054906101000a900460ff1615156117a557fe5b816000600a60006117bd6117b885612886565b6128b4565b600019166000191681526020019081526020016000208054600181600116156101000203166002900490501415156117f157fe5b6004544210151561180157600080fd5b3373ffffffffffffffffffffffffffffffffffffffff16600760009054906101000a900473ffffffffffffffffffffffffffffffffffffffff1673ffffffffffffffffffffffffffffffffffffffff1614151561185d57600080fd5b81600a600061187361186e87612886565b6128b4565b60001916600019168152602001908152602001600020908051906020019061189c929190612d59565b50600b8390806001815401808255809150509060018203906000526020600020016000909192909190915090805190602001906118da929190612d59565b50503073ffffffffffffffffffffffffffffffffffffffff167f9baebac67931fa0302d3f9793c844ce81f856decfd277712c216329f3df90e0b846040518080602001828103825283818151815260200191508051906020019080838360005b8381101561195557808201518184015260208101905061193a565b50505050905090810190601f1680156119825780820380516001836020036101000a031916815260200191505b509250505060405180910390a2505050565b600360019054906101000a900460ff161515156119ad57fe5b3373ffffffffffffffffffffffffffffffffffffffff16600660009054906101000a900473ffffffffffffffffffffffffffffffffffffffff1673ffffffffffffffffffffffffffffffffffffffff16141515611a0957600080fd5b611a11611b06565b1515611a1957fe5b6001600360016101000a81548160ff0219169083151502179055503073ffffffffffffffffffffffffffffffffffffffff163373ffffffffffffffffffffffffffffffffffffffff167f67dbe849a9c7e4fbbaa3c0610c9348e4b4d0470fab72b7c3d587be9ef3014c4360405160405180910390a3565b600a81565b6000600360019054906101000a900460ff16905090565b60008173ffffffffffffffffffffffffffffffffffffffff16600760009054906101000a900473ffffffffffffffffffffffffffffffffffffffff1673ffffffffffffffffffffffffffffffffffffffff16149050919050565b600060086000600760009054906101000a900473ffffffffffffffffffffffffffffffffffffffff1673ffffffffffffffffffffffffffffffffffffffff1673ffffffffffffffffffffffffffffffffffffffff16815260200190815260200160002060000160019054906101000a900460ff161515611b895760009050611bb3565b600554600760149054906101000a900460ff1660ff161015611bae5760009050611bb3565b600190505b90565b60045481565b606060006060600091505b600b805490508263ffffffff161015611d8957600a6000611ca6611ca1600b8663ffffffff16815481101515611bf957fe5b906000526020600020018054600181600116156101000203166002900480601f016020809104026020016040519081016040528092919081815260200182805460018160011615610100020316600290048015611c975780601f10611c6c57610100808354040283529160200191611c97565b820191906000526020600020905b815481529060010190602001808311611c7a57829003601f168201915b5050505050612886565b6128b4565b600019166000191681526020019081526020016000208054600181600116156101000203166002900480601f016020809104026020016040519081016040528092919081815260200182805460018160011615610100020316600290048015611d505780601f10611d2557610100808354040283529160200191611d50565b820191906000526020600020905b815481529060010190602001808311611d3357829003601f168201915b50505050509050611d7a611d6382612886565b611d6c85612886565b612a7890919063ffffffff16565b92508180600101925050611bc7565b505090565b600360009054906101000a900460ff1681565b60005481565b6060600a6000611dbe611db985612886565b6128b4565b600019166000191681526020019081526020016000208054600181600116156101000203166002900480601f016020809104026020016040519081016040528092919081815260200182805460018160011615610100020316600290048015611e685780601f10611e3d57610100808354040283529160200191611e68565b820191906000526020600020905b815481529060010190602001808311611e4b57829003601f168201915b50505050509050919050565b600360019054906101000a900460ff1681565b606060008090505b600b805490508163ffffffff161015611fe257611fd3611ee36040805190810160405280600181526020017f3b00000000000000000000000000000000000000000000000000000000000000815250612886565b611fc5611fc0611fa9600b8663ffffffff16815481101515611f0157fe5b906000526020600020018054600181600116156101000203166002900480601f016020809104026020016040519081016040528092919081815260200182805460018160011615610100020316600290048015611f9f5780601f10611f7457610100808354040283529160200191611f9f565b820191906000526020600020905b815481529060010190602001808311611f8257829003601f168201915b5050505050612886565b611fb287612886565b612a7890919063ffffffff16565b612886565b612a7890919063ffffffff16565b91508080600101915050611e8f565b5090565b6000600a6000611ffd611ff885612886565b6128b4565b6000191660001916815260200190815260200160002060405160200180828054600181600116156101000203166002900480156120715780601f1061204f576101008083540402835291820191612071565b820191906000526020600020905b81548152906001019060200180831161205d575b50509150506040516020818303038152906040526040518082805190602001908083835b6020831015156120ba5780518252602082019150602081019050602083039250612095565b6001836020036101000a03801982511681845116808217855250505050505090500191505060405180910390209050919050565b600b818154811015156120fd57fe5b906000526020600020016000915090508054600181600116156101000203166002900480601f0160208091040260200160405190810160405280929190818152602001828054600181600116156101000203166002900480156121a15780601f10612176576101008083540402835291602001916121a1565b820191906000526020600020905b81548152906001019060200180831161218457829003601f168201915b505050505081565b600254421115156121b957600080fd5b6121c161137e565b15156121cc57600080fd5b33600860008273ffffffffffffffffffffffffffffffffffffffff1673ffffffffffffffffffffffffffffffffffffffff16815260200190815260200160002060000160009054906101000a900460ff16151561222857600080fd5b600760009054906101000a900473ffffffffffffffffffffffffffffffffffffffff1673ffffffffffffffffffffffffffffffffffffffff16ff5b600061226e82612afa565b1515612345577fc18ad75b56934a79fbdc8a290004a37a45fefb023648128bf56aa146e917f46933604051808273ffffffffffffffffffffffffffffffffffffffff1673ffffffffffffffffffffffffffffffffffffffff16815260200191505060405180910390a16040517f08c379a00000000000000000000000000000000000000000000000000000000081526004018080602001828103825260208152602001807f5375626d697474696e67207369676e617475726520697320696e76616c69642181525060200191505060405180910390fd5b6124a08261248e30600660009054906101000a900473ffffffffffffffffffffffffffffffffffffffff166123786116b0565b604051602001808473ffffffffffffffffffffffffffffffffffffffff1673ffffffffffffffffffffffffffffffffffffffff166c010000000000000000000000000281526014018373ffffffffffffffffffffffffffffffffffffffff1673ffffffffffffffffffffffffffffffffffffffff166c01000000000000000000000000028152601401826000191660001916815260200193505050506040516020818303038152906040526040518082805190602001908083835b6020831015156124585780518252602082019150602081019050602083039250612433565b6001836020036101000a0380198251168184511680821785525050505050509050019150506040518091039020600019166128c5565b6000191661298090919063ffffffff16565b90506001600860008373ffffffffffffffffffffffffffffffffffffffff1673ffffffffffffffffffffffffffffffffffffffff16815260200190815260200160002060000160016101000a81548160ff0219169083151502179055506007601481819054906101000a900460ff168092919060010191906101000a81548160ff021916908360ff16021790555050600660009054906101000a900473ffffffffffffffffffffffffffffffffffffffff1673ffffffffffffffffffffffffffffffffffffffff163073ffffffffffffffffffffffffffffffffffffffff167fc2bf16530f348dc1b17eea7985ab72810b756cc5fb003750246145c6aa940f2060405160405180910390a35050565b600c60009054906101000a900460ff1681565b600c60009054906101000a900460ff1615156125da57fe5b600454421015156125ea57600080fd5b816000600a60006126026125fd85612886565b6128b4565b600019166000191681526020019081526020016000208054600181600116156101000203166002900490501415151561263757fe5b3373ffffffffffffffffffffffffffffffffffffffff16600760009054906101000a900473ffffffffffffffffffffffffffffffffffffffff1673ffffffffffffffffffffffffffffffffffffffff1614151561269357600080fd5b81600a60006126a96126a487612886565b6128b4565b6000191660001916815260200190815260200160002090805190602001906126d2929190612d59565b503073ffffffffffffffffffffffffffffffffffffffff167f9baebac67931fa0302d3f9793c844ce81f856decfd277712c216329f3df90e0b846040518080602001828103825283818151815260200191508051906020019080838360005b8381101561274c578082015181840152602081019050612731565b50505050905090810190601f1680156127795780820380516001836020036101000a031916815260200191505b509250505060405180910390a2505050565b600760159054906101000a900460ff1681565b3373ffffffffffffffffffffffffffffffffffffffff16600660009054906101000a900473ffffffffffffffffffffffffffffffffffffffff1673ffffffffffffffffffffffffffffffffffffffff161415156127fa57600080fd5b6004544210151561280a57600080fd5b600360019054906101000a900460ff1615151561282357fe5b600081118015612837575060098054905081105b151561284257600080fd5b807f75f1bf5e48fe4895f88b4bf88e36054829d7be3dc6ef5a755296e910f631cb8b6005546040518082815260200191505060405180910390a28060058190555050565b61288e612dd9565b600060208301905060408051908101604052808451815260200182815250915050919050565b600081516020830151209050919050565b60008160405160200180807f19457468657265756d205369676e6564204d6573736167653a0a333200000000815250601c0182600019166000191681526020019150506040516020818303038152906040526040518082805190602001908083835b60208310151561294c5780518252602082019150602081019050602083039250612927565b6001836020036101000a03801982511681845116808217855250505050505090500191505060405180910390209050919050565b6000806000806041855114151561299a5760009350612a6f565b6020850151925060408501519150606085015160001a9050601b8160ff1610156129c557601b810190505b601b8160ff16141580156129dd5750601c8160ff1614155b156129eb5760009350612a6f565b600186828585604051600081526020016040526040518085600019166000191681526020018460ff1660ff1681526020018360001916600019168152602001826000191660001916815260200194505050505060206040516020810390808403906000865af1158015612a62573d6000803e3d6000fd5b5050506020604051035193505b50505092915050565b606080600083600001518560000151016040519080825280601f01601f191660200182016040528015612aba5781602001602082028038833980820191505090505b509150602082019050612ad68186602001518760000151612c45565b612aef8560000151820185602001518660000151612c45565b819250505092915050565b6000612c3e30600660009054906101000a900473ffffffffffffffffffffffffffffffffffffffff16612b2b6116b0565b604051602001808473ffffffffffffffffffffffffffffffffffffffff1673ffffffffffffffffffffffffffffffffffffffff166c010000000000000000000000000281526014018373ffffffffffffffffffffffffffffffffffffffff1673ffffffffffffffffffffffffffffffffffffffff166c01000000000000000000000000028152601401826000191660001916815260200193505050506040516020818303038152906040526040518082805190602001908083835b602083101515612c0b5780518252602082019150602081019050602083039250612be6565b6001836020036101000a038019825116818451168082178552505050505050905001915050604051809103902083612c90565b9050919050565b60005b602082101515612c6d5782518452602084019350602083019250602082039150612c48565b6001826020036101000a0390508019835116818551168181178652505050505050565b600080612cb683612ca486600019166128c5565b6000191661298090919063ffffffff16565b9050600860008273ffffffffffffffffffffffffffffffffffffffff1673ffffffffffffffffffffffffffffffffffffffff16815260200190815260200160002060000160009054906101000a900460ff1691505092915050565b50805460018160011615610100020316600290046000825580601f10612d375750612d56565b601f016020900490600052602060002090810190612d559190612df3565b5b50565b828054600181600116156101000203166002900490600052602060002090601f016020900481019282601f10612d9a57805160ff1916838001178555612dc8565b82800160010185558215612dc8579182015b82811115612dc7578251825591602001919060010190612dac565b5b509050612dd59190612df3565b5090565b604080519081016040528060008152602001600081525090565b612e1591905b80821115612e11576000816000905550600101612df9565b5090565b90565b612e20612dd9565b612e2b838383612e94565b5092915050565b606080600083600001516040519080825280601f01601f191660200182016040528015612e6e5781602001602082028038833980820191505090505b509150602082019050612e8a8185602001518660000151612c45565b8192505050919050565b612e9c612dd9565b6000612eba8560000151866020015186600001518760200151612f32565b90508460200151836020018181525050846020015181038360000181815250508460000151856020015101811415612efc576000856000018181525050612f27565b8360000151836000015101856000018181510391508181525050836000015181018560200181815250505b829150509392505050565b60008060008060008060008060008b97508c8b1115156130025760208b111515612fbc5760018b60200360080260020a03196001029550858a511694508a8d8d010393508588511692505b84600019168360001916141515612fb4578388101515612fa1578c8c019850613008565b8780600101985050858851169250612f7d565b879850613008565b8a8a209150600096505b8a8d0387111515613001578a88209050806000191682600019161415612fee57879850613008565b6001880197508680600101975050612fc6565b5b8c8c0198505b50505050505050509493505050505600a165627a7a723058207652463688d028fe32bb86338f798208af69e3ada7fc1b571be33bf750cf8e6d0029",
  "source": "pragma solidity ^0.4.24;\n\nimport \"./MultiSigDocument.sol\";\nimport \"./lib/strings.sol\";\n\ncontract ILockableStorage {\n    function getAllKeys() public view returns(string);\n    function addEntry(string memory key, string value) public;\n    function getEntry(string memory key) public view returns (string);\n    function updateEntry(string memory key, string value) public;\n    function deleteEntry(string memory key) public; // Delete Value only\n    function changeWritePermission(bool _writable, string memory key) public;\n\n    event EntrySet(address indexed document, string entryKey);\n    event EntryDeleted(address indexed document, string entryKey);\n    event EntryUpdateRequest(address indexed document, string entryKey);\n}\n\ncontract MultiSigDocumentWithStorage is MultiSigDocument, ILockableStorage {\n  using strings for *;\n  string constant NULL_CHAR = '\\u0000';\n  //Data\n  mapping (bytes32 => string) public entryStorage;\n  // A long string contains all of the key allKeysInString\n  /* string public allKeysInString; */\n\n  string[] public entryKeys;\n  bool public writable = false;\n\n  constructor(\n    address[] signers,\n    address verifier,\n    uint8 required,\n    uint effectiveDurationInDay,\n    uint offset,\n    bytes buffer\n    )\n  MultiSigDocument(signers, verifier, required, effectiveDurationInDay, 30)\n  public\n  {\n    setData(offset, buffer);\n  }\n\n  modifier entryNotExisted(string memory entryKey) {\n    assert(bytes(entryStorage[entryKey.toSlice().keccak()]).length == 0);\n    _;\n  }\n\n  modifier entryExisted(string memory entryKey) {\n    assert(bytes(entryStorage[entryKey.toSlice().keccak()]).length != 0);\n    _;\n  }\n  modifier isWritable() {\n    assert(writable);\n    _;\n  }\n  event LogString(uint l1, string s1, string  s2);\n  function setData(uint offset, bytes memory buffer)\n    internal\n  {\n    while(offset > 0) {\n\n      uint size;\n      assembly {\n         size := mload(add(buffer, offset))\n      }\n      string memory strKey = new string(size);\n      writeBytesToString(offset, buffer, bytes(strKey));\n      offset -= sizeOfString(strKey);\n      assembly {\n         size := mload(add(buffer, offset))\n      }\n      string memory strVal = new string(size);\n      writeBytesToString(offset, buffer, bytes(strVal));\n      offset -= sizeOfString(strVal);\n\n      string memory strippedVal = strVal.toSlice().split(NULL_CHAR.toSlice()).toString();\n      entryStorage[keccak256(abi.encodePacked(strKey))] = strippedVal;\n\n      entryKeys.push(strKey.toSlice().split(NULL_CHAR.toSlice()).toString());\n    }\n  }\n\n  function sizeOfString(string _in)\n    internal\n    pure\n    returns(uint _size)\n  {\n      _size = bytes(_in).length / 32;\n       if(bytes(_in).length % 32 != 0)\n          _size++;\n\n      _size++;\n      _size *= 32;\n  }\n\n  function writeBytesToString(uint offset, bytes buffer, bytes output)\n    internal\n    pure\n  {\n    uint size = 32;\n    assembly {\n      let word_count\n      size := mload(add(buffer, offset))\n      word_count := add(div(size,32), 1)\n      if gt(mod(size, 32), 0) {\n        word_count := add(word_count,1)\n      }\n      for { let i := 0 } lt(i, word_count) { i := add(i, 1) } {\n        mstore(add(output,mul(i, 0x20)),mload(add(buffer,offset)))\n        offset:= sub(offset, 32)\n      }\n    }\n  }\n\n  function getAllKeys()\n    public\n    view\n    returns (string memory out1)\n  {\n    for(uint32 i = 0 ; i < entryKeys.length; i++)\n    {\n      out1 = out1.toSlice().concat(\n        entryKeys[i].toSlice()).toSlice().concat(\";\".toSlice());\n    }\n  }\n\n  function getAllValues()\n    public\n    view\n    returns (string memory out1)\n  {\n    for(uint32 i = 0 ; i < entryKeys.length; i++)\n    {\n      string memory s = entryStorage[entryKeys[i].toSlice().keccak()];\n      out1 = out1.toSlice().concat(s.toSlice());\n    }\n  }\n\n  function getProofHash()\n    public\n    view\n    returns (bytes32)\n  {\n    return keccak256(abi.encodePacked(getAllValues()));\n  }\n\n  function addEntry(string memory key, string value)\n    public\n    isWritable()\n    entryNotExisted(key)\n    beforeModificationDeadline()\n    onlyIssuer()\n  {\n    entryStorage[key.toSlice().keccak()] = value;\n    entryKeys.push(key);\n    emit EntrySet(address(this), key);\n  }\n\n  function updateEntry(string memory key, string value)\n    public\n    isWritable()\n    beforeModificationDeadline()\n    entryExisted(key)\n    onlyIssuer()\n  {\n    entryStorage[key.toSlice().keccak()] = value;\n    emit EntrySet(address(this), key);\n  }\n\n  function deleteEntry(string memory key)\n    public\n    beforeModificationDeadline()\n    isWritable()\n    onlyIssuer()\n  {\n    delete entryStorage[key.toSlice().keccak()];\n    emit EntryDeleted(address(this), key);\n  }\n\n  function changeWritePermission(bool _writable, string memory key)\n    public\n    onlyVerifier()\n  {\n    writable = _writable;\n    emit EntryUpdateRequest(address(this), key);\n  }\n\n  function getEntry(string memory key)\n    public\n    view\n    returns (string)\n  {\n    return entryStorage[key.toSlice().keccak()];\n  }\n  function getKKHash(string memory s1)\n    public\n    view\n    returns (bytes32)\n  {\n    return keccak256(abi.encodePacked(entryStorage[s1.toSlice().keccak()]));\n  }\n\n  function deleteDocument()\n      public\n      isExpired()\n      allowDelete()\n      signerExists(msg.sender)\n  {\n      selfdestruct(issuer);\n  }\n\n  function deleteData()\n      internal\n  {\n\n  }\n\n  function () public {\n    // fallback\n  }\n\n}\n",
  "sourcePath": "/Users/henry/ws/digicert/contracts/MultiSigDocumentWithStorage.sol",
  "compiler": {
    "name": "solc",
    "version": "0.4.24+commit.e67f0147.Emscripten.clang"
  },
  "schemaVersion": "2.0.1",
  "updatedAt": "2018-08-29T16:14:04.501Z"
}